{
  "contractName": "AgriSupplyChain",
  "abi": [
    {
      "inputs": [],
      "stateMutability": "nonpayable",
      "type": "constructor"
    },
    {
      "anonymous": false,
      "inputs": [
        {
          "indexed": false,
          "internalType": "uint256",
          "name": "id",
          "type": "uint256"
        }
      ],
      "name": "Harvested",
      "type": "event"
    },
    {
      "anonymous": false,
      "inputs": [
        {
          "indexed": false,
          "internalType": "uint256",
          "name": "id",
          "type": "uint256"
        }
      ],
      "name": "PurchasedByDistributor",
      "type": "event"
    },
    {
      "inputs": [
        {
          "internalType": "address",
          "name": "",
          "type": "address"
        }
      ],
      "name": "isDistributor",
      "outputs": [
        {
          "internalType": "bool",
          "name": "",
          "type": "bool"
        }
      ],
      "stateMutability": "view",
      "type": "function",
      "constant": true
    },
    {
      "inputs": [
        {
          "internalType": "address",
          "name": "",
          "type": "address"
        }
      ],
      "name": "isFarmer",
      "outputs": [
        {
          "internalType": "bool",
          "name": "",
          "type": "bool"
        }
      ],
      "stateMutability": "view",
      "type": "function",
      "constant": true
    },
    {
      "inputs": [
        {
          "internalType": "address",
          "name": "",
          "type": "address"
        }
      ],
      "name": "isRetailer",
      "outputs": [
        {
          "internalType": "bool",
          "name": "",
          "type": "bool"
        }
      ],
      "stateMutability": "view",
      "type": "function",
      "constant": true
    },
    {
      "inputs": [],
      "name": "itemCounter",
      "outputs": [
        {
          "internalType": "uint256",
          "name": "",
          "type": "uint256"
        }
      ],
      "stateMutability": "view",
      "type": "function",
      "constant": true
    },
    {
      "inputs": [
        {
          "internalType": "uint256",
          "name": "",
          "type": "uint256"
        }
      ],
      "name": "items",
      "outputs": [
        {
          "internalType": "uint256",
          "name": "id",
          "type": "uint256"
        },
        {
          "internalType": "string",
          "name": "name",
          "type": "string"
        },
        {
          "internalType": "string",
          "name": "origin",
          "type": "string"
        },
        {
          "internalType": "uint256",
          "name": "price",
          "type": "uint256"
        },
        {
          "internalType": "string",
          "name": "quality",
          "type": "string"
        },
        {
          "internalType": "enum AgriSupplyChain.State",
          "name": "state",
          "type": "uint8"
        },
        {
          "internalType": "address",
          "name": "farmer",
          "type": "address"
        },
        {
          "internalType": "address",
          "name": "distributor",
          "type": "address"
        },
        {
          "internalType": "address",
          "name": "retailer",
          "type": "address"
        },
        {
          "internalType": "address",
          "name": "consumer",
          "type": "address"
        }
      ],
      "stateMutability": "view",
      "type": "function",
      "constant": true
    },
    {
      "inputs": [],
      "name": "owner",
      "outputs": [
        {
          "internalType": "address",
          "name": "",
          "type": "address"
        }
      ],
      "stateMutability": "view",
      "type": "function",
      "constant": true
    },
    {
      "inputs": [
        {
          "internalType": "address",
          "name": "_farmer",
          "type": "address"
        }
      ],
      "name": "addFarmer",
      "outputs": [],
      "stateMutability": "nonpayable",
      "type": "function"
    },
    {
      "inputs": [
        {
          "internalType": "address",
          "name": "_dist",
          "type": "address"
        }
      ],
      "name": "addDistributor",
      "outputs": [],
      "stateMutability": "nonpayable",
      "type": "function"
    },
    {
      "inputs": [
        {
          "internalType": "address",
          "name": "_retailer",
          "type": "address"
        }
      ],
      "name": "addRetailer",
      "outputs": [],
      "stateMutability": "nonpayable",
      "type": "function"
    },
    {
      "inputs": [
        {
          "internalType": "string",
          "name": "_name",
          "type": "string"
        },
        {
          "internalType": "string",
          "name": "_origin",
          "type": "string"
        },
        {
          "internalType": "uint256",
          "name": "_price",
          "type": "uint256"
        },
        {
          "internalType": "string",
          "name": "_quality",
          "type": "string"
        }
      ],
      "name": "harvestItem",
      "outputs": [],
      "stateMutability": "nonpayable",
      "type": "function"
    },
    {
      "inputs": [
        {
          "internalType": "uint256",
          "name": "_id",
          "type": "uint256"
        }
      ],
      "name": "purchaseByDistributor",
      "outputs": [],
      "stateMutability": "payable",
      "type": "function",
      "payable": true
    },
    {
      "inputs": [
        {
          "internalType": "uint256",
          "name": "_id",
          "type": "uint256"
        }
      ],
      "name": "getItem",
      "outputs": [
        {
          "components": [
            {
              "internalType": "uint256",
              "name": "id",
              "type": "uint256"
            },
            {
              "internalType": "string",
              "name": "name",
              "type": "string"
            },
            {
              "internalType": "string",
              "name": "origin",
              "type": "string"
            },
            {
              "internalType": "uint256",
              "name": "price",
              "type": "uint256"
            },
            {
              "internalType": "string",
              "name": "quality",
              "type": "string"
            },
            {
              "internalType": "enum AgriSupplyChain.State",
              "name": "state",
              "type": "uint8"
            },
            {
              "internalType": "address",
              "name": "farmer",
              "type": "address"
            },
            {
              "internalType": "address",
              "name": "distributor",
              "type": "address"
            },
            {
              "internalType": "address",
              "name": "retailer",
              "type": "address"
            },
            {
              "internalType": "address",
              "name": "consumer",
              "type": "address"
            }
          ],
          "internalType": "struct AgriSupplyChain.Item",
          "name": "",
          "type": "tuple"
        }
      ],
      "stateMutability": "view",
      "type": "function",
      "constant": true
    }
  ],
  "bytecode": "0x6080604052600060015534801561001557600080fd5b50336000806101000a81548173ffffffffffffffffffffffffffffffffffffffff021916908373ffffffffffffffffffffffffffffffffffffffff160217905550611c00806100656000396000f3fe6080604052600436106100a75760003560e01c80638ec4f505116100645780638ec4f505146101ce5780638f0c86fa146101f757806390d75b3714610234578063b942906914610250578063bfb231d21461028d578063f4dd4892146102d3576100a7565b80633129e773146100ac5780635da09b88146100e95780636d6d00ed146101265780637250e2241461015157806380c3f96d1461017a5780638da5cb5b146101a3575b600080fd5b3480156100b857600080fd5b506100d360048036038101906100ce9190611473565b6102fc565b6040516100e09190611815565b60405180910390f35b3480156100f557600080fd5b50610110600480360381019061010b919061139f565b6106d3565b60405161011d919061177a565b60405180910390f35b34801561013257600080fd5b5061013b6106f3565b6040516101489190611837565b60405180910390f35b34801561015d57600080fd5b506101786004803603810190610173919061139f565b6106f9565b005b34801561018657600080fd5b506101a1600480360381019061019c919061139f565b610754565b005b3480156101af57600080fd5b506101b86107af565b6040516101c5919061175f565b60405180910390f35b3480156101da57600080fd5b506101f560048036038101906101f0919061139f565b6107d3565b005b34801561020357600080fd5b5061021e6004803603810190610219919061139f565b61082e565b60405161022b919061177a565b60405180910390f35b61024e60048036038101906102499190611473565b61084e565b005b34801561025c57600080fd5b506102776004803603810190610272919061139f565b610b38565b604051610284919061177a565b60405180910390f35b34801561029957600080fd5b506102b460048036038101906102af9190611473565b610b58565b6040516102ca9a99989796959493929190611852565b60405180910390f35b3480156102df57600080fd5b506102fa60048036038101906102f591906113c8565b610dd1565b005b610304611187565b60026000838152602001908152602001600020604051806101400160405290816000820154815260200160018201805461033d90611a40565b80601f016020809104026020016040519081016040528092919081815260200182805461036990611a40565b80156103b65780601f1061038b576101008083540402835291602001916103b6565b820191906000526020600020905b81548152906001019060200180831161039957829003601f168201915b505050505081526020016002820180546103cf90611a40565b80601f01602080910402602001604051908101604052809291908181526020018280546103fb90611a40565b80156104485780601f1061041d57610100808354040283529160200191610448565b820191906000526020600020905b81548152906001019060200180831161042b57829003601f168201915b505050505081526020016003820154815260200160048201805461046b90611a40565b80601f016020809104026020016040519081016040528092919081815260200182805461049790611a40565b80156104e45780601f106104b9576101008083540402835291602001916104e4565b820191906000526020600020905b8154815290600101906020018083116104c757829003601f168201915b505050505081526020016005820160009054906101000a900460ff166006811115610538577f4e487b7100000000000000000000000000000000000000000000000000000000600052602160045260246000fd5b6006811115610570577f4e487b7100000000000000000000000000000000000000000000000000000000600052602160045260246000fd5b81526020016005820160019054906101000a900473ffffffffffffffffffffffffffffffffffffffff1673ffffffffffffffffffffffffffffffffffffffff1673ffffffffffffffffffffffffffffffffffffffff1681526020016006820160009054906101000a900473ffffffffffffffffffffffffffffffffffffffff1673ffffffffffffffffffffffffffffffffffffffff1673ffffffffffffffffffffffffffffffffffffffff1681526020016007820160009054906101000a900473ffffffffffffffffffffffffffffffffffffffff1673ffffffffffffffffffffffffffffffffffffffff1673ffffffffffffffffffffffffffffffffffffffff1681526020016008820160009054906101000a900473ffffffffffffffffffffffffffffffffffffffff1673ffffffffffffffffffffffffffffffffffffffff1673ffffffffffffffffffffffffffffffffffffffff16815250509050919050565b60056020528060005260406000206000915054906101000a900460ff1681565b60015481565b6001600460008373ffffffffffffffffffffffffffffffffffffffff1673ffffffffffffffffffffffffffffffffffffffff16815260200190815260200160002060006101000a81548160ff02191690831515021790555050565b6001600360008373ffffffffffffffffffffffffffffffffffffffff1673ffffffffffffffffffffffffffffffffffffffff16815260200190815260200160002060006101000a81548160ff02191690831515021790555050565b60008054906101000a900473ffffffffffffffffffffffffffffffffffffffff1681565b6001600560008373ffffffffffffffffffffffffffffffffffffffff1673ffffffffffffffffffffffffffffffffffffffff16815260200190815260200160002060006101000a81548160ff02191690831515021790555050565b60046020528060005260406000206000915054906101000a900460ff1681565b60006002600083815260200190815260200160002090506000600681111561089f577f4e487b7100000000000000000000000000000000000000000000000000000000600052602160045260246000fd5b8160050160009054906101000a900460ff1660068111156108e9577f4e487b7100000000000000000000000000000000000000000000000000000000600052602160045260246000fd5b14610929576040517f08c379a0000000000000000000000000000000000000000000000000000000008152600401610920906117d5565b60405180910390fd5b600460003373ffffffffffffffffffffffffffffffffffffffff1673ffffffffffffffffffffffffffffffffffffffff16815260200190815260200160002060009054906101000a900460ff166109b5576040517f08c379a00000000000000000000000000000000000000000000000000000000081526004016109ac906117f5565b60405180910390fd5b80600301543410156109fc576040517f08c379a00000000000000000000000000000000000000000000000000000000081526004016109f3906117b5565b60405180910390fd5b338160060160006101000a81548173ffffffffffffffffffffffffffffffffffffffff021916908373ffffffffffffffffffffffffffffffffffffffff16021790555060028160050160006101000a81548160ff02191690836006811115610a8d577f4e487b7100000000000000000000000000000000000000000000000000000000600052602160045260246000fd5b02179055508060050160019054906101000a900473ffffffffffffffffffffffffffffffffffffffff1673ffffffffffffffffffffffffffffffffffffffff166108fc349081150290604051600060405180830381858888f19350505050158015610afc573d6000803e3d6000fd5b507facd9402b9f9e8c15fa7c1819f8393ca56eb61316cc354fc6ac2150aed3ce793182604051610b2c9190611837565b60405180910390a15050565b60036020528060005260406000206000915054906101000a900460ff1681565b6002602052806000526040600020600091509050806000015490806001018054610b8190611a40565b80601f0160208091040260200160405190810160405280929190818152602001828054610bad90611a40565b8015610bfa5780601f10610bcf57610100808354040283529160200191610bfa565b820191906000526020600020905b815481529060010190602001808311610bdd57829003601f168201915b505050505090806002018054610c0f90611a40565b80601f0160208091040260200160405190810160405280929190818152602001828054610c3b90611a40565b8015610c885780601f10610c5d57610100808354040283529160200191610c88565b820191906000526020600020905b815481529060010190602001808311610c6b57829003601f168201915b505050505090806003015490806004018054610ca390611a40565b80601f0160208091040260200160405190810160405280929190818152602001828054610ccf90611a40565b8015610d1c5780601f10610cf157610100808354040283529160200191610d1c565b820191906000526020600020905b815481529060010190602001808311610cff57829003601f168201915b5050505050908060050160009054906101000a900460ff16908060050160019054906101000a900473ffffffffffffffffffffffffffffffffffffffff16908060060160009054906101000a900473ffffffffffffffffffffffffffffffffffffffff16908060070160009054906101000a900473ffffffffffffffffffffffffffffffffffffffff16908060080160009054906101000a900473ffffffffffffffffffffffffffffffffffffffff1690508a565b600360003373ffffffffffffffffffffffffffffffffffffffff1673ffffffffffffffffffffffffffffffffffffffff16815260200190815260200160002060009054906101000a900460ff16610e5d576040517f08c379a0000000000000000000000000000000000000000000000000000000008152600401610e5490611795565b60405180910390fd5b60016000815480929190610e7090611a72565b9190505550604051806101400160405280600154815260200185815260200184815260200183815260200182815260200160006006811115610edb577f4e487b7100000000000000000000000000000000000000000000000000000000600052602160045260246000fd5b81526020013373ffffffffffffffffffffffffffffffffffffffff168152602001600073ffffffffffffffffffffffffffffffffffffffff168152602001600073ffffffffffffffffffffffffffffffffffffffff168152602001600073ffffffffffffffffffffffffffffffffffffffff16815250600260006001548152602001908152602001600020600082015181600001556020820151816001019080519060200190610f8c92919061126a565b506040820151816002019080519060200190610fa992919061126a565b50606082015181600301556080820151816004019080519060200190610fd092919061126a565b5060a08201518160050160006101000a81548160ff02191690836006811115611022577f4e487b7100000000000000000000000000000000000000000000000000000000600052602160045260246000fd5b021790555060c08201518160050160016101000a81548173ffffffffffffffffffffffffffffffffffffffff021916908373ffffffffffffffffffffffffffffffffffffffff16021790555060e08201518160060160006101000a81548173ffffffffffffffffffffffffffffffffffffffff021916908373ffffffffffffffffffffffffffffffffffffffff1602179055506101008201518160070160006101000a81548173ffffffffffffffffffffffffffffffffffffffff021916908373ffffffffffffffffffffffffffffffffffffffff1602179055506101208201518160080160006101000a81548173ffffffffffffffffffffffffffffffffffffffff021916908373ffffffffffffffffffffffffffffffffffffffff1602179055509050507f8e55ccfc9778ff8eba1646d765cf1982537ce0f9257054a17b48aad7452501836001546040516111799190611837565b60405180910390a150505050565b6040518061014001604052806000815260200160608152602001606081526020016000815260200160608152602001600060068111156111f0577f4e487b7100000000000000000000000000000000000000000000000000000000600052602160045260246000fd5b8152602001600073ffffffffffffffffffffffffffffffffffffffff168152602001600073ffffffffffffffffffffffffffffffffffffffff168152602001600073ffffffffffffffffffffffffffffffffffffffff168152602001600073ffffffffffffffffffffffffffffffffffffffff1681525090565b82805461127690611a40565b90600052602060002090601f01602090048101928261129857600085556112df565b82601f106112b157805160ff19168380011785556112df565b828001600101855582156112df579182015b828111156112de5782518255916020019190600101906112c3565b5b5090506112ec91906112f0565b5090565b5b808211156113095760008160009055506001016112f1565b5090565b600061132061131b84611934565b611903565b90508281526020810184848401111561133857600080fd5b6113438482856119fe565b509392505050565b60008135905061135a81611b9c565b92915050565b600082601f83011261137157600080fd5b813561138184826020860161130d565b91505092915050565b60008135905061139981611bb3565b92915050565b6000602082840312156113b157600080fd5b60006113bf8482850161134b565b91505092915050565b600080600080608085870312156113de57600080fd5b600085013567ffffffffffffffff8111156113f857600080fd5b61140487828801611360565b945050602085013567ffffffffffffffff81111561142157600080fd5b61142d87828801611360565b935050604061143e8782880161138a565b925050606085013567ffffffffffffffff81111561145b57600080fd5b61146787828801611360565b91505092959194509250565b60006020828403121561148557600080fd5b60006114938482850161138a565b91505092915050565b6114a581611991565b82525050565b6114b481611991565b82525050565b6114c3816119a3565b82525050565b6114d2816119ec565b82525050565b6114e1816119ec565b82525050565b60006114f282611964565b6114fc818561196f565b935061150c818560208601611a0d565b61151581611b77565b840191505092915050565b600061152b82611964565b6115358185611980565b9350611545818560208601611a0d565b61154e81611b77565b840191505092915050565b6000611566601883611980565b91507f4f6e6c79206661726d6572732063616e206861727665737400000000000000006000830152602082019050919050565b60006115a6601483611980565b91507f496e73756666696369656e74207061796d656e740000000000000000000000006000830152602082019050919050565b60006115e6601683611980565b91507f4e6f7420726561647920666f72207075726368617365000000000000000000006000830152602082019050919050565b6000611626601183611980565b91507f4f6e6c79206469737472696275746f72730000000000000000000000000000006000830152602082019050919050565b6000610140830160008301516116726000860182611741565b506020830151848203602086015261168a82826114e7565b915050604083015184820360408601526116a482826114e7565b91505060608301516116b96060860182611741565b50608083015184820360808601526116d182826114e7565b91505060a08301516116e660a08601826114c9565b5060c08301516116f960c086018261149c565b5060e083015161170c60e086018261149c565b5061010083015161172161010086018261149c565b5061012083015161173661012086018261149c565b508091505092915050565b61174a816119e2565b82525050565b611759816119e2565b82525050565b600060208201905061177460008301846114ab565b92915050565b600060208201905061178f60008301846114ba565b92915050565b600060208201905081810360008301526117ae81611559565b9050919050565b600060208201905081810360008301526117ce81611599565b9050919050565b600060208201905081810360008301526117ee816115d9565b9050919050565b6000602082019050818103600083015261180e81611619565b9050919050565b6000602082019050818103600083015261182f8184611659565b905092915050565b600060208201905061184c6000830184611750565b92915050565b600061014082019050611868600083018d611750565b818103602083015261187a818c611520565b9050818103604083015261188e818b611520565b905061189d606083018a611750565b81810360808301526118af8189611520565b90506118be60a08301886114d8565b6118cb60c08301876114ab565b6118d860e08301866114ab565b6118e66101008301856114ab565b6118f46101208301846114ab565b9b9a5050505050505050505050565b6000604051905081810181811067ffffffffffffffff8211171561192a57611929611b48565b5b8060405250919050565b600067ffffffffffffffff82111561194f5761194e611b48565b5b601f19601f8301169050602081019050919050565b600081519050919050565b600082825260208201905092915050565b600082825260208201905092915050565b600061199c826119c2565b9050919050565b60008115159050919050565b60008190506119bd82611b88565b919050565b600073ffffffffffffffffffffffffffffffffffffffff82169050919050565b6000819050919050565b60006119f7826119af565b9050919050565b82818337600083830152505050565b60005b83811015611a2b578082015181840152602081019050611a10565b83811115611a3a576000848401525b50505050565b60006002820490506001821680611a5857607f821691505b60208210811415611a6c57611a6b611b19565b5b50919050565b6000611a7d826119e2565b91507fffffffffffffffffffffffffffffffffffffffffffffffffffffffffffffffff821415611ab057611aaf611abb565b5b600182019050919050565b7f4e487b7100000000000000000000000000000000000000000000000000000000600052601160045260246000fd5b7f4e487b7100000000000000000000000000000000000000000000000000000000600052602160045260246000fd5b7f4e487b7100000000000000000000000000000000000000000000000000000000600052602260045260246000fd5b7f4e487b7100000000000000000000000000000000000000000000000000000000600052604160045260246000fd5b6000601f19601f8301169050919050565b60078110611b9957611b98611aea565b5b50565b611ba581611991565b8114611bb057600080fd5b50565b611bbc816119e2565b8114611bc757600080fd5b5056fea2646970667358221220d22c00225d9a0ace70bccaf796160aa9e496bbedc5ce0b85a2f56e846c3f78b764736f6c63430008000033",
  "immutableReferences": {},
  "source": "// SPDX-License-Identifier: MIT\r\npragma solidity ^0.8.0;\r\n\r\ncontract AgriSupplyChain {\r\n    address public owner;\r\n    uint public itemCounter = 0;\r\n\r\n    enum State { Harvested, ForSaleByFarmer, PurchasedByDistributor, ShippedByDistributor, ReceivedByRetailer, ForSaleByRetailer, PurchasedByConsumer }\r\n\r\n    struct Item {\r\n        uint id;\r\n        string name;\r\n        string origin;\r\n        uint price;  // In wei\r\n        string quality;\r\n        State state;\r\n        address farmer;\r\n        address distributor;\r\n        address retailer;\r\n        address consumer;\r\n    }\r\n\r\n    mapping(uint => Item) public items;\r\n\r\n    mapping(address => bool) public isFarmer;\r\n    mapping(address => bool) public isDistributor;\r\n    mapping(address => bool) public isRetailer;\r\n\r\n    event Harvested(uint id);\r\n    event PurchasedByDistributor(uint id);\r\n\r\n    constructor() {\r\n        owner = msg.sender;\r\n    }\r\n\r\n    function addFarmer(address _farmer) public { isFarmer[_farmer] = true; }\r\n    function addDistributor(address _dist) public { isDistributor[_dist] = true; }\r\n    function addRetailer(address _retailer) public { isRetailer[_retailer] = true; }\r\n\r\n    function harvestItem(string memory _name, string memory _origin, uint _price, string memory _quality) public {\r\n        require(isFarmer[msg.sender], \"Only farmers can harvest\");\r\n        itemCounter++;\r\n        items[itemCounter] = Item(itemCounter, _name, _origin, _price, _quality, State.Harvested, msg.sender, address(0), address(0), address(0));\r\n        emit Harvested(itemCounter);\r\n    }\r\n\r\n    function purchaseByDistributor(uint _id) public payable {\r\n        Item storage item = items[_id];\r\n        require(item.state == State.Harvested, \"Not ready for purchase\");\r\n        require(isDistributor[msg.sender], \"Only distributors\");\r\n        require(msg.value >= item.price, \"Insufficient payment\");\r\n        item.distributor = msg.sender;\r\n        item.state = State.PurchasedByDistributor;\r\n        payable(item.farmer).transfer(msg.value);\r\n        emit PurchasedByDistributor(_id);\r\n    }\r\n\r\n    function getItem(uint _id) public view returns (Item memory) {\r\n        return items[_id];\r\n    }\r\n}",
  "sourcePath": "C:\\Users\\vinit\\AgriChainProject\\contracts\\AgriSupplyChain.sol",
  "compiler": {
    "name": "solc",
    "version": "0.8.0+commit.c7dfd78e.Emscripten.clang"
  },
  "schemaVersion": "3.4.16",
  "updatedAt": "2025-09-18T17:18:11.379Z",
  "networkType": "ethereum",
  "devdoc": {
    "kind": "dev",
    "methods": {},
    "version": 1
  },
  "userdoc": {
    "kind": "user",
    "methods": {},
    "version": 1
  }
}