{
  "contractName": "AgriSupplyChain",
  "abi": [
    {
      "inputs": [],
      "stateMutability": "nonpayable",
      "type": "constructor"
    },
    {
      "anonymous": false,
      "inputs": [
        {
          "indexed": false,
          "internalType": "uint256",
          "name": "id",
          "type": "uint256"
        }
      ],
      "name": "Harvested",
      "type": "event"
    },
    {
      "anonymous": false,
      "inputs": [
        {
          "indexed": false,
          "internalType": "uint256",
          "name": "id",
          "type": "uint256"
        }
      ],
      "name": "PurchasedByConsumer",
      "type": "event"
    },
    {
      "anonymous": false,
      "inputs": [
        {
          "indexed": false,
          "internalType": "uint256",
          "name": "id",
          "type": "uint256"
        }
      ],
      "name": "PurchasedByDistributor",
      "type": "event"
    },
    {
      "anonymous": false,
      "inputs": [
        {
          "indexed": false,
          "internalType": "uint256",
          "name": "id",
          "type": "uint256"
        }
      ],
      "name": "PurchasedByRetailer",
      "type": "event"
    },
    {
      "anonymous": false,
      "inputs": [
        {
          "indexed": false,
          "internalType": "uint256",
          "name": "id",
          "type": "uint256"
        }
      ],
      "name": "ReceivedByRetailer",
      "type": "event"
    },
    {
      "anonymous": false,
      "inputs": [
        {
          "indexed": false,
          "internalType": "uint256",
          "name": "id",
          "type": "uint256"
        }
      ],
      "name": "ShippedByDistributor",
      "type": "event"
    },
    {
      "inputs": [
        {
          "internalType": "address",
          "name": "",
          "type": "address"
        }
      ],
      "name": "isDistributor",
      "outputs": [
        {
          "internalType": "bool",
          "name": "",
          "type": "bool"
        }
      ],
      "stateMutability": "view",
      "type": "function",
      "constant": true
    },
    {
      "inputs": [
        {
          "internalType": "address",
          "name": "",
          "type": "address"
        }
      ],
      "name": "isFarmer",
      "outputs": [
        {
          "internalType": "bool",
          "name": "",
          "type": "bool"
        }
      ],
      "stateMutability": "view",
      "type": "function",
      "constant": true
    },
    {
      "inputs": [
        {
          "internalType": "address",
          "name": "",
          "type": "address"
        }
      ],
      "name": "isRetailer",
      "outputs": [
        {
          "internalType": "bool",
          "name": "",
          "type": "bool"
        }
      ],
      "stateMutability": "view",
      "type": "function",
      "constant": true
    },
    {
      "inputs": [],
      "name": "itemCounter",
      "outputs": [
        {
          "internalType": "uint256",
          "name": "",
          "type": "uint256"
        }
      ],
      "stateMutability": "view",
      "type": "function",
      "constant": true
    },
    {
      "inputs": [
        {
          "internalType": "uint256",
          "name": "",
          "type": "uint256"
        }
      ],
      "name": "itemMargins",
      "outputs": [
        {
          "internalType": "uint256",
          "name": "distributorMargin",
          "type": "uint256"
        },
        {
          "internalType": "uint256",
          "name": "retailerMargin",
          "type": "uint256"
        }
      ],
      "stateMutability": "view",
      "type": "function",
      "constant": true
    },
    {
      "inputs": [
        {
          "internalType": "uint256",
          "name": "",
          "type": "uint256"
        }
      ],
      "name": "items",
      "outputs": [
        {
          "internalType": "uint256",
          "name": "id",
          "type": "uint256"
        },
        {
          "internalType": "string",
          "name": "name",
          "type": "string"
        },
        {
          "internalType": "string",
          "name": "origin",
          "type": "string"
        },
        {
          "internalType": "uint256",
          "name": "farmerPrice",
          "type": "uint256"
        },
        {
          "internalType": "uint256",
          "name": "distributorPrice",
          "type": "uint256"
        },
        {
          "internalType": "uint256",
          "name": "retailerPrice",
          "type": "uint256"
        },
        {
          "internalType": "string",
          "name": "quality",
          "type": "string"
        },
        {
          "internalType": "enum AgriSupplyChain.State",
          "name": "state",
          "type": "uint8"
        },
        {
          "internalType": "address",
          "name": "farmer",
          "type": "address"
        },
        {
          "internalType": "address",
          "name": "distributor",
          "type": "address"
        },
        {
          "internalType": "address",
          "name": "retailer",
          "type": "address"
        },
        {
          "internalType": "address",
          "name": "consumer",
          "type": "address"
        }
      ],
      "stateMutability": "view",
      "type": "function",
      "constant": true
    },
    {
      "inputs": [],
      "name": "owner",
      "outputs": [
        {
          "internalType": "address",
          "name": "",
          "type": "address"
        }
      ],
      "stateMutability": "view",
      "type": "function",
      "constant": true
    },
    {
      "inputs": [
        {
          "internalType": "address",
          "name": "_farmer",
          "type": "address"
        }
      ],
      "name": "addFarmer",
      "outputs": [],
      "stateMutability": "nonpayable",
      "type": "function"
    },
    {
      "inputs": [
        {
          "internalType": "address",
          "name": "_dist",
          "type": "address"
        }
      ],
      "name": "addDistributor",
      "outputs": [],
      "stateMutability": "nonpayable",
      "type": "function"
    },
    {
      "inputs": [
        {
          "internalType": "address",
          "name": "_retailer",
          "type": "address"
        }
      ],
      "name": "addRetailer",
      "outputs": [],
      "stateMutability": "nonpayable",
      "type": "function"
    },
    {
      "inputs": [
        {
          "internalType": "string",
          "name": "_name",
          "type": "string"
        },
        {
          "internalType": "string",
          "name": "_origin",
          "type": "string"
        },
        {
          "internalType": "uint256",
          "name": "_price",
          "type": "uint256"
        },
        {
          "internalType": "string",
          "name": "_quality",
          "type": "string"
        }
      ],
      "name": "harvestItem",
      "outputs": [],
      "stateMutability": "nonpayable",
      "type": "function"
    },
    {
      "inputs": [
        {
          "internalType": "uint256",
          "name": "_id",
          "type": "uint256"
        }
      ],
      "name": "purchaseByDistributor",
      "outputs": [],
      "stateMutability": "payable",
      "type": "function",
      "payable": true
    },
    {
      "inputs": [
        {
          "internalType": "uint256",
          "name": "_id",
          "type": "uint256"
        },
        {
          "internalType": "uint256",
          "name": "_margin",
          "type": "uint256"
        }
      ],
      "name": "setDistributorMargin",
      "outputs": [],
      "stateMutability": "nonpayable",
      "type": "function"
    },
    {
      "inputs": [
        {
          "internalType": "uint256",
          "name": "_id",
          "type": "uint256"
        }
      ],
      "name": "shipItem",
      "outputs": [],
      "stateMutability": "nonpayable",
      "type": "function"
    },
    {
      "inputs": [
        {
          "internalType": "uint256",
          "name": "_id",
          "type": "uint256"
        }
      ],
      "name": "receiveByRetailer",
      "outputs": [],
      "stateMutability": "nonpayable",
      "type": "function"
    },
    {
      "inputs": [
        {
          "internalType": "uint256",
          "name": "_id",
          "type": "uint256"
        },
        {
          "internalType": "uint256",
          "name": "_margin",
          "type": "uint256"
        }
      ],
      "name": "setRetailerMargin",
      "outputs": [],
      "stateMutability": "nonpayable",
      "type": "function"
    },
    {
      "inputs": [
        {
          "internalType": "uint256",
          "name": "_id",
          "type": "uint256"
        }
      ],
      "name": "purchaseByRetailer",
      "outputs": [],
      "stateMutability": "payable",
      "type": "function",
      "payable": true
    },
    {
      "inputs": [
        {
          "internalType": "uint256",
          "name": "_id",
          "type": "uint256"
        }
      ],
      "name": "purchaseByConsumer",
      "outputs": [],
      "stateMutability": "payable",
      "type": "function",
      "payable": true
    },
    {
      "inputs": [
        {
          "internalType": "uint256",
          "name": "_id",
          "type": "uint256"
        }
      ],
      "name": "getPriceBreakdown",
      "outputs": [
        {
          "internalType": "uint256",
          "name": "farmerPrice",
          "type": "uint256"
        },
        {
          "internalType": "uint256",
          "name": "distributorMargin",
          "type": "uint256"
        },
        {
          "internalType": "uint256",
          "name": "distributorPrice",
          "type": "uint256"
        },
        {
          "internalType": "uint256",
          "name": "retailerMargin",
          "type": "uint256"
        },
        {
          "internalType": "uint256",
          "name": "retailerPrice",
          "type": "uint256"
        },
        {
          "internalType": "uint256",
          "name": "totalMargin",
          "type": "uint256"
        }
      ],
      "stateMutability": "view",
      "type": "function",
      "constant": true
    },
    {
      "inputs": [
        {
          "internalType": "uint256",
          "name": "_id",
          "type": "uint256"
        }
      ],
      "name": "getItem",
      "outputs": [
        {
          "components": [
            {
              "internalType": "uint256",
              "name": "id",
              "type": "uint256"
            },
            {
              "internalType": "string",
              "name": "name",
              "type": "string"
            },
            {
              "internalType": "string",
              "name": "origin",
              "type": "string"
            },
            {
              "internalType": "uint256",
              "name": "farmerPrice",
              "type": "uint256"
            },
            {
              "internalType": "uint256",
              "name": "distributorPrice",
              "type": "uint256"
            },
            {
              "internalType": "uint256",
              "name": "retailerPrice",
              "type": "uint256"
            },
            {
              "internalType": "string",
              "name": "quality",
              "type": "string"
            },
            {
              "internalType": "enum AgriSupplyChain.State",
              "name": "state",
              "type": "uint8"
            },
            {
              "internalType": "address",
              "name": "farmer",
              "type": "address"
            },
            {
              "internalType": "address",
              "name": "distributor",
              "type": "address"
            },
            {
              "internalType": "address",
              "name": "retailer",
              "type": "address"
            },
            {
              "internalType": "address",
              "name": "consumer",
              "type": "address"
            }
          ],
          "internalType": "struct AgriSupplyChain.Item",
          "name": "",
          "type": "tuple"
        }
      ],
      "stateMutability": "view",
      "type": "function",
      "constant": true
    },
    {
      "inputs": [
        {
          "internalType": "uint256",
          "name": "_id",
          "type": "uint256"
        }
      ],
      "name": "getItemMargins",
      "outputs": [
        {
          "components": [
            {
              "internalType": "uint256",
              "name": "distributorMargin",
              "type": "uint256"
            },
            {
              "internalType": "uint256",
              "name": "retailerMargin",
              "type": "uint256"
            }
          ],
          "internalType": "struct AgriSupplyChain.Margins",
          "name": "",
          "type": "tuple"
        }
      ],
      "stateMutability": "view",
      "type": "function",
      "constant": true
    }
  ],
  "bytecode": "0x6080604052600060015534801561001557600080fd5b50336000806101000a81548173ffffffffffffffffffffffffffffffffffffffff021916908373ffffffffffffffffffffffffffffffffffffffff1602179055506139a4806100656000396000f3fe60806040526004361061012a5760003560e01c80638ec4f505116100ab578063b94290691161006f578063b9429069146103f1578063baf6430d1461042e578063bfb231d214610457578063d20fcaa51461049f578063f4dd4892146104c8578063f61c899a146104f15761012a565b80638ec4f505146102f45780638f0c86fa1461031d57806390d75b371461035a57806396679dc614610376578063b556a7b1146103b45761012a565b80635da09b88116100f25780635da09b881461020f5780636d6d00ed1461024c5780637250e2241461027757806380c3f96d146102a05780638da5cb5b146102c95761012a565b8063154ef0d81461012f5780632acd8ae1146101715780633129e7731461018d5780634ed5e81e146101ca578063595ff860146101e6575b600080fd5b34801561013b57600080fd5b5061015660048036038101906101519190612acb565b61051a565b604051610168969594939291906135f0565b60405180910390f35b61018b60048036038101906101869190612acb565b61097d565b005b34801561019957600080fd5b506101b460048036038101906101af9190612acb565b610cb6565b6040516101c191906134a0565b60405180910390f35b6101e460048036038101906101df9190612acb565b6110a1565b005b3480156101f257600080fd5b5061020d60048036038101906102089190612af4565b6112ff565b005b34801561021b57600080fd5b50610236600480360381019061023191906129f7565b611530565b6040516102439190613265565b60405180910390f35b34801561025857600080fd5b50610261611550565b60405161026e91906134dd565b60405180910390f35b34801561028357600080fd5b5061029e600480360381019061029991906129f7565b611556565b005b3480156102ac57600080fd5b506102c760048036038101906102c291906129f7565b6115b1565b005b3480156102d557600080fd5b506102de61160c565b6040516102eb919061324a565b60405180910390f35b34801561030057600080fd5b5061031b600480360381019061031691906129f7565b611630565b005b34801561032957600080fd5b50610344600480360381019061033f91906129f7565b61168b565b6040516103519190613265565b60405180910390f35b610374600480360381019061036f9190612acb565b6116ab565b005b34801561038257600080fd5b5061039d60048036038101906103989190612acb565b611995565b6040516103ab9291906135c7565b60405180910390f35b3480156103c057600080fd5b506103db60048036038101906103d69190612acb565b6119b9565b6040516103e891906134c2565b60405180910390f35b3480156103fd57600080fd5b50610418600480360381019061041391906129f7565b6119fa565b6040516104259190613265565b60405180910390f35b34801561043a57600080fd5b5061045560048036038101906104509190612acb565b611a1a565b005b34801561046357600080fd5b5061047e60048036038101906104799190612acb565b611c52565b6040516104969c9b9a999897969594939291906134f8565b60405180910390f35b3480156104ab57600080fd5b506104c660048036038101906104c19190612af4565b611ed7565b005b3480156104d457600080fd5b506104ef60048036038101906104ea9190612a20565b612115565b005b3480156104fd57600080fd5b5061051860048036038101906105139190612acb565b612530565b005b600080600080600080600060026000898152602001908152602001600020604051806101800160405290816000820154815260200160018201805461055e906137e4565b80601f016020809104026020016040519081016040528092919081815260200182805461058a906137e4565b80156105d75780601f106105ac576101008083540402835291602001916105d7565b820191906000526020600020905b8154815290600101906020018083116105ba57829003601f168201915b505050505081526020016002820180546105f0906137e4565b80601f016020809104026020016040519081016040528092919081815260200182805461061c906137e4565b80156106695780601f1061063e57610100808354040283529160200191610669565b820191906000526020600020905b81548152906001019060200180831161064c57829003601f168201915b505050505081526020016003820154815260200160048201548152602001600582015481526020016006820180546106a0906137e4565b80601f01602080910402602001604051908101604052809291908181526020018280546106cc906137e4565b80156107195780601f106106ee57610100808354040283529160200191610719565b820191906000526020600020905b8154815290600101906020018083116106fc57829003601f168201915b505050505081526020016007820160009054906101000a900460ff16600681111561076d577f4e487b7100000000000000000000000000000000000000000000000000000000600052602160045260246000fd5b60068111156107a5577f4e487b7100000000000000000000000000000000000000000000000000000000600052602160045260246000fd5b81526020016007820160019054906101000a900473ffffffffffffffffffffffffffffffffffffffff1673ffffffffffffffffffffffffffffffffffffffff1673ffffffffffffffffffffffffffffffffffffffff1681526020016008820160009054906101000a900473ffffffffffffffffffffffffffffffffffffffff1673ffffffffffffffffffffffffffffffffffffffff1673ffffffffffffffffffffffffffffffffffffffff1681526020016009820160009054906101000a900473ffffffffffffffffffffffffffffffffffffffff1673ffffffffffffffffffffffffffffffffffffffff1673ffffffffffffffffffffffffffffffffffffffff168152602001600a820160009054906101000a900473ffffffffffffffffffffffffffffffffffffffff1673ffffffffffffffffffffffffffffffffffffffff1673ffffffffffffffffffffffffffffffffffffffff168152505090506000600360008a8152602001908152602001600020604051806040016040529081600082015481526020016001820154815250509050816060015197508060000151965081608001519550806020015194508160a0015193508060200151816000015161097091906136df565b9250505091939550919395565b6000600260008381526020019081526020016000209050600460068111156109ce577f4e487b7100000000000000000000000000000000000000000000000000000000600052602160045260246000fd5b8160070160009054906101000a900460ff166006811115610a18577f4e487b7100000000000000000000000000000000000000000000000000000000600052602160045260246000fd5b14610a58576040517f08c379a0000000000000000000000000000000000000000000000000000000008152600401610a4f90613460565b60405180910390fd5b600660003373ffffffffffffffffffffffffffffffffffffffff1673ffffffffffffffffffffffffffffffffffffffff16815260200190815260200160002060009054906101000a900460ff16610ae4576040517f08c379a0000000000000000000000000000000000000000000000000000000008152600401610adb906132a0565b60405180910390fd5b3373ffffffffffffffffffffffffffffffffffffffff168160090160009054906101000a900473ffffffffffffffffffffffffffffffffffffffff1673ffffffffffffffffffffffffffffffffffffffff1614610b76576040517f08c379a0000000000000000000000000000000000000000000000000000000008152600401610b6d906133c0565b60405180910390fd5b8060040154341015610bbd576040517f08c379a0000000000000000000000000000000000000000000000000000000008152600401610bb490613340565b60405180910390fd5b60058160070160006101000a81548160ff02191690836006811115610c0b577f4e487b7100000000000000000000000000000000000000000000000000000000600052602160045260246000fd5b02179055508060080160009054906101000a900473ffffffffffffffffffffffffffffffffffffffff1673ffffffffffffffffffffffffffffffffffffffff166108fc349081150290604051600060405180830381858888f19350505050158015610c7a573d6000803e3d6000fd5b507faa7352d10146444c3afd9bd7fb0ae56b0a85e81139536bbec3f1f660fddd7be182604051610caa91906134dd565b60405180910390a15050565b610cbe6127b7565b600260008381526020019081526020016000206040518061018001604052908160008201548152602001600182018054610cf7906137e4565b80601f0160208091040260200160405190810160405280929190818152602001828054610d23906137e4565b8015610d705780601f10610d4557610100808354040283529160200191610d70565b820191906000526020600020905b815481529060010190602001808311610d5357829003601f168201915b50505050508152602001600282018054610d89906137e4565b80601f0160208091040260200160405190810160405280929190818152602001828054610db5906137e4565b8015610e025780601f10610dd757610100808354040283529160200191610e02565b820191906000526020600020905b815481529060010190602001808311610de557829003601f168201915b50505050508152602001600382015481526020016004820154815260200160058201548152602001600682018054610e39906137e4565b80601f0160208091040260200160405190810160405280929190818152602001828054610e65906137e4565b8015610eb25780601f10610e8757610100808354040283529160200191610eb2565b820191906000526020600020905b815481529060010190602001808311610e9557829003601f168201915b505050505081526020016007820160009054906101000a900460ff166006811115610f06577f4e487b7100000000000000000000000000000000000000000000000000000000600052602160045260246000fd5b6006811115610f3e577f4e487b7100000000000000000000000000000000000000000000000000000000600052602160045260246000fd5b81526020016007820160019054906101000a900473ffffffffffffffffffffffffffffffffffffffff1673ffffffffffffffffffffffffffffffffffffffff1673ffffffffffffffffffffffffffffffffffffffff1681526020016008820160009054906101000a900473ffffffffffffffffffffffffffffffffffffffff1673ffffffffffffffffffffffffffffffffffffffff1673ffffffffffffffffffffffffffffffffffffffff1681526020016009820160009054906101000a900473ffffffffffffffffffffffffffffffffffffffff1673ffffffffffffffffffffffffffffffffffffffff1673ffffffffffffffffffffffffffffffffffffffff168152602001600a820160009054906101000a900473ffffffffffffffffffffffffffffffffffffffff1673ffffffffffffffffffffffffffffffffffffffff1673ffffffffffffffffffffffffffffffffffffffff16815250509050919050565b6000600260008381526020019081526020016000209050600560068111156110f2577f4e487b7100000000000000000000000000000000000000000000000000000000600052602160045260246000fd5b8160070160009054906101000a900460ff16600681111561113c577f4e487b7100000000000000000000000000000000000000000000000000000000600052602160045260246000fd5b1461117c576040517f08c379a0000000000000000000000000000000000000000000000000000000008152600401611173906133a0565b60405180910390fd5b80600501543410156111c3576040517f08c379a00000000000000000000000000000000000000000000000000000000081526004016111ba90613340565b60405180910390fd5b3381600a0160006101000a81548173ffffffffffffffffffffffffffffffffffffffff021916908373ffffffffffffffffffffffffffffffffffffffff16021790555060068160070160006101000a81548160ff02191690836006811115611254577f4e487b7100000000000000000000000000000000000000000000000000000000600052602160045260246000fd5b02179055508060090160009054906101000a900473ffffffffffffffffffffffffffffffffffffffff1673ffffffffffffffffffffffffffffffffffffffff166108fc349081150290604051600060405180830381858888f193505050501580156112c3573d6000803e3d6000fd5b507fc7e94446a942a0541d0224ece380a730c85f03db7188fca783225da9255929f7826040516112f391906134dd565b60405180910390a15050565b600060026000848152602001908152602001600020905060046006811115611350577f4e487b7100000000000000000000000000000000000000000000000000000000600052602160045260246000fd5b8160070160009054906101000a900460ff16600681111561139a577f4e487b7100000000000000000000000000000000000000000000000000000000600052602160045260246000fd5b146113da576040517f08c379a00000000000000000000000000000000000000000000000000000000081526004016113d190613280565b60405180910390fd5b600660003373ffffffffffffffffffffffffffffffffffffffff1673ffffffffffffffffffffffffffffffffffffffff16815260200190815260200160002060009054906101000a900460ff16611466576040517f08c379a000000000000000000000000000000000000000000000000000000000815260040161145d906132e0565b60405180910390fd5b3373ffffffffffffffffffffffffffffffffffffffff168160090160009054906101000a900473ffffffffffffffffffffffffffffffffffffffff1673ffffffffffffffffffffffffffffffffffffffff16146114f8576040517f08c379a00000000000000000000000000000000000000000000000000000000081526004016114ef90613420565b60405180910390fd5b81600360008581526020019081526020016000206001018190555081816004015461152391906136df565b8160050181905550505050565b60066020528060005260406000206000915054906101000a900460ff1681565b60015481565b6001600560008373ffffffffffffffffffffffffffffffffffffffff1673ffffffffffffffffffffffffffffffffffffffff16815260200190815260200160002060006101000a81548160ff02191690831515021790555050565b6001600460008373ffffffffffffffffffffffffffffffffffffffff1673ffffffffffffffffffffffffffffffffffffffff16815260200190815260200160002060006101000a81548160ff02191690831515021790555050565b60008054906101000a900473ffffffffffffffffffffffffffffffffffffffff1681565b6001600660008373ffffffffffffffffffffffffffffffffffffffff1673ffffffffffffffffffffffffffffffffffffffff16815260200190815260200160002060006101000a81548160ff02191690831515021790555050565b60056020528060005260406000206000915054906101000a900460ff1681565b6000600260008381526020019081526020016000209050600060068111156116fc577f4e487b7100000000000000000000000000000000000000000000000000000000600052602160045260246000fd5b8160070160009054906101000a900460ff166006811115611746577f4e487b7100000000000000000000000000000000000000000000000000000000600052602160045260246000fd5b14611786576040517f08c379a000000000000000000000000000000000000000000000000000000000815260040161177d90613380565b60405180910390fd5b600560003373ffffffffffffffffffffffffffffffffffffffff1673ffffffffffffffffffffffffffffffffffffffff16815260200190815260200160002060009054906101000a900460ff16611812576040517f08c379a000000000000000000000000000000000000000000000000000000000815260040161180990613400565b60405180910390fd5b8060030154341015611859576040517f08c379a000000000000000000000000000000000000000000000000000000000815260040161185090613340565b60405180910390fd5b338160080160006101000a81548173ffffffffffffffffffffffffffffffffffffffff021916908373ffffffffffffffffffffffffffffffffffffffff16021790555060028160070160006101000a81548160ff021916908360068111156118ea577f4e487b7100000000000000000000000000000000000000000000000000000000600052602160045260246000fd5b02179055508060070160019054906101000a900473ffffffffffffffffffffffffffffffffffffffff1673ffffffffffffffffffffffffffffffffffffffff166108fc349081150290604051600060405180830381858888f19350505050158015611959573d6000803e3d6000fd5b507facd9402b9f9e8c15fa7c1819f8393ca56eb61316cc354fc6ac2150aed3ce79318260405161198991906134dd565b60405180910390a15050565b60036020528060005260406000206000915090508060000154908060010154905082565b6119c16128a8565b60036000838152602001908152602001600020604051806040016040529081600082015481526020016001820154815250509050919050565b60046020528060005260406000206000915054906101000a900460ff1681565b600060026000838152602001908152602001600020905060036006811115611a6b577f4e487b7100000000000000000000000000000000000000000000000000000000600052602160045260246000fd5b8160070160009054906101000a900460ff166006811115611ab5577f4e487b7100000000000000000000000000000000000000000000000000000000600052602160045260246000fd5b14611af5576040517f08c379a0000000000000000000000000000000000000000000000000000000008152600401611aec906133e0565b60405180910390fd5b600660003373ffffffffffffffffffffffffffffffffffffffff1673ffffffffffffffffffffffffffffffffffffffff16815260200190815260200160002060009054906101000a900460ff16611b81576040517f08c379a0000000000000000000000000000000000000000000000000000000008152600401611b78906132a0565b60405180910390fd5b338160090160006101000a81548173ffffffffffffffffffffffffffffffffffffffff021916908373ffffffffffffffffffffffffffffffffffffffff16021790555060048160070160006101000a81548160ff02191690836006811115611c12577f4e487b7100000000000000000000000000000000000000000000000000000000600052602160045260246000fd5b02179055507f322f34e90f2269750b3e28178631d975cc678db36f21098fe548b7f755ce0bd082604051611c4691906134dd565b60405180910390a15050565b6002602052806000526040600020600091509050806000015490806001018054611c7b906137e4565b80601f0160208091040260200160405190810160405280929190818152602001828054611ca7906137e4565b8015611cf45780601f10611cc957610100808354040283529160200191611cf4565b820191906000526020600020905b815481529060010190602001808311611cd757829003601f168201915b505050505090806002018054611d09906137e4565b80601f0160208091040260200160405190810160405280929190818152602001828054611d35906137e4565b8015611d825780601f10611d5757610100808354040283529160200191611d82565b820191906000526020600020905b815481529060010190602001808311611d6557829003601f168201915b505050505090806003015490806004015490806005015490806006018054611da9906137e4565b80601f0160208091040260200160405190810160405280929190818152602001828054611dd5906137e4565b8015611e225780601f10611df757610100808354040283529160200191611e22565b820191906000526020600020905b815481529060010190602001808311611e0557829003601f168201915b5050505050908060070160009054906101000a900460ff16908060070160019054906101000a900473ffffffffffffffffffffffffffffffffffffffff16908060080160009054906101000a900473ffffffffffffffffffffffffffffffffffffffff16908060090160009054906101000a900473ffffffffffffffffffffffffffffffffffffffff169080600a0160009054906101000a900473ffffffffffffffffffffffffffffffffffffffff1690508c565b600060026000848152602001908152602001600020905060026006811115611f28577f4e487b7100000000000000000000000000000000000000000000000000000000600052602160045260246000fd5b8160070160009054906101000a900460ff166006811115611f72577f4e487b7100000000000000000000000000000000000000000000000000000000600052602160045260246000fd5b14611fb2576040517f08c379a0000000000000000000000000000000000000000000000000000000008152600401611fa990613320565b60405180910390fd5b600560003373ffffffffffffffffffffffffffffffffffffffff1673ffffffffffffffffffffffffffffffffffffffff16815260200190815260200160002060009054906101000a900460ff1661203e576040517f08c379a000000000000000000000000000000000000000000000000000000000815260040161203590613480565b60405180910390fd5b3373ffffffffffffffffffffffffffffffffffffffff168160080160009054906101000a900473ffffffffffffffffffffffffffffffffffffffff1673ffffffffffffffffffffffffffffffffffffffff16146120d0576040517f08c379a00000000000000000000000000000000000000000000000000000000081526004016120c790613440565b60405180910390fd5b8160036000858152602001908152602001600020600001819055508181600301546120fb91906136df565b816004018190555080600401548160050181905550505050565b600460003373ffffffffffffffffffffffffffffffffffffffff1673ffffffffffffffffffffffffffffffffffffffff16815260200190815260200160002060009054906101000a900460ff166121a1576040517f08c379a000000000000000000000000000000000000000000000000000000000815260040161219890613300565b60405180910390fd5b600160008154809291906121b490613816565b919050555060405180610180016040528060015481526020018581526020018481526020018381526020018381526020018381526020018281526020016000600681111561222b577f4e487b7100000000000000000000000000000000000000000000000000000000600052602160045260246000fd5b81526020013373ffffffffffffffffffffffffffffffffffffffff168152602001600073ffffffffffffffffffffffffffffffffffffffff168152602001600073ffffffffffffffffffffffffffffffffffffffff168152602001600073ffffffffffffffffffffffffffffffffffffffff168152506002600060015481526020019081526020016000206000820151816000015560208201518160010190805190602001906122dc9291906128c2565b5060408201518160020190805190602001906122f99291906128c2565b50606082015181600301556080820151816004015560a0820151816005015560c08201518160060190805190602001906123349291906128c2565b5060e08201518160070160006101000a81548160ff02191690836006811115612386577f4e487b7100000000000000000000000000000000000000000000000000000000600052602160045260246000fd5b02179055506101008201518160070160016101000a81548173ffffffffffffffffffffffffffffffffffffffff021916908373ffffffffffffffffffffffffffffffffffffffff1602179055506101208201518160080160006101000a81548173ffffffffffffffffffffffffffffffffffffffff021916908373ffffffffffffffffffffffffffffffffffffffff1602179055506101408201518160090160006101000a81548173ffffffffffffffffffffffffffffffffffffffff021916908373ffffffffffffffffffffffffffffffffffffffff16021790555061016082015181600a0160006101000a81548173ffffffffffffffffffffffffffffffffffffffff021916908373ffffffffffffffffffffffffffffffffffffffff160217905550905050604051806040016040528060008152602001600081525060036000600154815260200190815260200160002060008201518160000155602082015181600101559050507f8e55ccfc9778ff8eba1646d765cf1982537ce0f9257054a17b48aad74525018360015460405161252291906134dd565b60405180910390a150505050565b600060026000838152602001908152602001600020905060026006811115612581577f4e487b7100000000000000000000000000000000000000000000000000000000600052602160045260246000fd5b8160070160009054906101000a900460ff1660068111156125cb577f4e487b7100000000000000000000000000000000000000000000000000000000600052602160045260246000fd5b1461260b576040517f08c379a000000000000000000000000000000000000000000000000000000000815260040161260290613360565b60405180910390fd5b600560003373ffffffffffffffffffffffffffffffffffffffff1673ffffffffffffffffffffffffffffffffffffffff16815260200190815260200160002060009054906101000a900460ff16612697576040517f08c379a000000000000000000000000000000000000000000000000000000000815260040161268e90613400565b60405180910390fd5b3373ffffffffffffffffffffffffffffffffffffffff168160080160009054906101000a900473ffffffffffffffffffffffffffffffffffffffff1673ffffffffffffffffffffffffffffffffffffffff1614612729576040517f08c379a0000000000000000000000000000000000000000000000000000000008152600401612720906132c0565b60405180910390fd5b60038160070160006101000a81548160ff02191690836006811115612777577f4e487b7100000000000000000000000000000000000000000000000000000000600052602160045260246000fd5b02179055507fc5c33776d405e5686e4386e1ef31a65cf6195e4f7ceb8808ab64d05b6ccbc2a6826040516127ab91906134dd565b60405180910390a15050565b604051806101800160405280600081526020016060815260200160608152602001600081526020016000815260200160008152602001606081526020016000600681111561282e577f4e487b7100000000000000000000000000000000000000000000000000000000600052602160045260246000fd5b8152602001600073ffffffffffffffffffffffffffffffffffffffff168152602001600073ffffffffffffffffffffffffffffffffffffffff168152602001600073ffffffffffffffffffffffffffffffffffffffff168152602001600073ffffffffffffffffffffffffffffffffffffffff1681525090565b604051806040016040528060008152602001600081525090565b8280546128ce906137e4565b90600052602060002090601f0160209004810192826128f05760008555612937565b82601f1061290957805160ff1916838001178555612937565b82800160010185558215612937579182015b8281111561293657825182559160200191906001019061291b565b5b5090506129449190612948565b5090565b5b80821115612961576000816000905550600101612949565b5090565b600061297861297384613682565b613651565b90508281526020810184848401111561299057600080fd5b61299b8482856137a2565b509392505050565b6000813590506129b281613940565b92915050565b600082601f8301126129c957600080fd5b81356129d9848260208601612965565b91505092915050565b6000813590506129f181613957565b92915050565b600060208284031215612a0957600080fd5b6000612a17848285016129a3565b91505092915050565b60008060008060808587031215612a3657600080fd5b600085013567ffffffffffffffff811115612a5057600080fd5b612a5c878288016129b8565b945050602085013567ffffffffffffffff811115612a7957600080fd5b612a85878288016129b8565b9350506040612a96878288016129e2565b925050606085013567ffffffffffffffff811115612ab357600080fd5b612abf878288016129b8565b91505092959194509250565b600060208284031215612add57600080fd5b6000612aeb848285016129e2565b91505092915050565b60008060408385031215612b0757600080fd5b6000612b15858286016129e2565b9250506020612b26858286016129e2565b9150509250929050565b612b3981613735565b82525050565b612b4881613735565b82525050565b612b5781613747565b82525050565b612b6681613790565b82525050565b612b7581613790565b82525050565b6000612b86826136b2565b612b9081856136bd565b9350612ba08185602086016137b1565b612ba98161391b565b840191505092915050565b6000612bbf826136b2565b612bc981856136ce565b9350612bd98185602086016137b1565b612be28161391b565b840191505092915050565b6000612bfa601d836136ce565b91507f4974656d206e6f742072656365697665642062792072657461696c65720000006000830152602082019050919050565b6000612c3a600e836136ce565b91507f4f6e6c792072657461696c6572730000000000000000000000000000000000006000830152602082019050919050565b6000612c7a6028836136ce565b91507f4f6e6c79207468652070757263686173696e67206469737472696275746f722060008301527f63616e20736869700000000000000000000000000000000000000000000000006020830152604082019050919050565b6000612ce0601d836136ce565b91507f4f6e6c792072657461696c6572732063616e20736574206d617267696e0000006000830152602082019050919050565b6000612d206018836136ce565b91507f4f6e6c79206661726d6572732063616e206861727665737400000000000000006000830152602082019050919050565b6000612d606021836136ce565b91507f4974656d206e6f7420707572636861736564206279206469737472696275746f60008301527f72000000000000000000000000000000000000000000000000000000000000006020830152604082019050919050565b6000612dc66014836136ce565b91507f496e73756666696369656e74207061796d656e740000000000000000000000006000830152602082019050919050565b6000612e06601c836136ce565b91507f4e6f7420707572636861736564206279206469737472696275746f72000000006000830152602082019050919050565b6000612e466016836136ce565b91507f4e6f7420726561647920666f72207075726368617365000000000000000000006000830152602082019050919050565b6000612e866018836136ce565b91507f4e6f7420666f722073616c652062792072657461696c657200000000000000006000830152602082019050919050565b6000612ec66028836136ce565b91507f4f6e6c792074686520726563656976696e672072657461696c65722063616e2060008301527f70757263686173650000000000000000000000000000000000000000000000006020830152604082019050919050565b6000612f2c601a836136ce565b91507f4e6f742073686970706564206279206469737472696275746f720000000000006000830152602082019050919050565b6000612f6c6011836136ce565b91507f4f6e6c79206469737472696275746f72730000000000000000000000000000006000830152602082019050919050565b6000612fac602a836136ce565b91507f4f6e6c792074686520726563656976696e672072657461696c65722063616e2060008301527f736574206d617267696e000000000000000000000000000000000000000000006020830152604082019050919050565b6000613012602e836136ce565b91507f4f6e6c79207468652070757263686173696e67206469737472696275746f722060008301527f63616e20736574206d617267696e0000000000000000000000000000000000006020830152604082019050919050565b60006130786018836136ce565b91507f4e6f742072656365697665642062792072657461696c657200000000000000006000830152602082019050919050565b60006130b86020836136ce565b91507f4f6e6c79206469737472696275746f72732063616e20736574206d617267696e6000830152602082019050919050565b600061018083016000830151613104600086018261322c565b506020830151848203602086015261311c8282612b7b565b915050604083015184820360408601526131368282612b7b565b915050606083015161314b606086018261322c565b50608083015161315e608086018261322c565b5060a083015161317160a086018261322c565b5060c083015184820360c08601526131898282612b7b565b91505060e083015161319e60e0860182612b5d565b506101008301516131b3610100860182612b30565b506101208301516131c8610120860182612b30565b506101408301516131dd610140860182612b30565b506101608301516131f2610160860182612b30565b508091505092915050565b604082016000820151613213600085018261322c565b506020820151613226602085018261322c565b50505050565b61323581613786565b82525050565b61324481613786565b82525050565b600060208201905061325f6000830184612b3f565b92915050565b600060208201905061327a6000830184612b4e565b92915050565b6000602082019050818103600083015261329981612bed565b9050919050565b600060208201905081810360008301526132b981612c2d565b9050919050565b600060208201905081810360008301526132d981612c6d565b9050919050565b600060208201905081810360008301526132f981612cd3565b9050919050565b6000602082019050818103600083015261331981612d13565b9050919050565b6000602082019050818103600083015261333981612d53565b9050919050565b6000602082019050818103600083015261335981612db9565b9050919050565b6000602082019050818103600083015261337981612df9565b9050919050565b6000602082019050818103600083015261339981612e39565b9050919050565b600060208201905081810360008301526133b981612e79565b9050919050565b600060208201905081810360008301526133d981612eb9565b9050919050565b600060208201905081810360008301526133f981612f1f565b9050919050565b6000602082019050818103600083015261341981612f5f565b9050919050565b6000602082019050818103600083015261343981612f9f565b9050919050565b6000602082019050818103600083015261345981613005565b9050919050565b600060208201905081810360008301526134798161306b565b9050919050565b60006020820190508181036000830152613499816130ab565b9050919050565b600060208201905081810360008301526134ba81846130eb565b905092915050565b60006040820190506134d760008301846131fd565b92915050565b60006020820190506134f2600083018461323b565b92915050565b60006101808201905061350e600083018f61323b565b8181036020830152613520818e612bb4565b90508181036040830152613534818d612bb4565b9050613543606083018c61323b565b613550608083018b61323b565b61355d60a083018a61323b565b81810360c083015261356f8189612bb4565b905061357e60e0830188612b6c565b61358c610100830187612b3f565b61359a610120830186612b3f565b6135a8610140830185612b3f565b6135b6610160830184612b3f565b9d9c50505050505050505050505050565b60006040820190506135dc600083018561323b565b6135e9602083018461323b565b9392505050565b600060c082019050613605600083018961323b565b613612602083018861323b565b61361f604083018761323b565b61362c606083018661323b565b613639608083018561323b565b61364660a083018461323b565b979650505050505050565b6000604051905081810181811067ffffffffffffffff82111715613678576136776138ec565b5b8060405250919050565b600067ffffffffffffffff82111561369d5761369c6138ec565b5b601f19601f8301169050602081019050919050565b600081519050919050565b600082825260208201905092915050565b600082825260208201905092915050565b60006136ea82613786565b91506136f583613786565b9250827fffffffffffffffffffffffffffffffffffffffffffffffffffffffffffffffff0382111561372a5761372961385f565b5b828201905092915050565b600061374082613766565b9050919050565b60008115159050919050565b60008190506137618261392c565b919050565b600073ffffffffffffffffffffffffffffffffffffffff82169050919050565b6000819050919050565b600061379b82613753565b9050919050565b82818337600083830152505050565b60005b838110156137cf5780820151818401526020810190506137b4565b838111156137de576000848401525b50505050565b600060028204905060018216806137fc57607f821691505b602082108114156138105761380f6138bd565b5b50919050565b600061382182613786565b91507fffffffffffffffffffffffffffffffffffffffffffffffffffffffffffffffff8214156138545761385361385f565b5b600182019050919050565b7f4e487b7100000000000000000000000000000000000000000000000000000000600052601160045260246000fd5b7f4e487b7100000000000000000000000000000000000000000000000000000000600052602160045260246000fd5b7f4e487b7100000000000000000000000000000000000000000000000000000000600052602260045260246000fd5b7f4e487b7100000000000000000000000000000000000000000000000000000000600052604160045260246000fd5b6000601f19601f8301169050919050565b6007811061393d5761393c61388e565b5b50565b61394981613735565b811461395457600080fd5b50565b61396081613786565b811461396b57600080fd5b5056fea2646970667358221220f2e110e6d5e235c83c8ffef3960a61d8a6174f77d747ed8c7ab002980572e9a364736f6c63430008000033",
  "immutableReferences": {},
  "source": "// SPDX-License-Identifier: MIT\npragma solidity ^0.8.0;\n\ncontract AgriSupplyChain {\n    address public owner;\n    uint public itemCounter = 0;\n\n    enum State { Harvested, ForSaleByFarmer, PurchasedByDistributor, ShippedByDistributor, ReceivedByRetailer, ForSaleByRetailer, PurchasedByConsumer }\n\n    struct Item {\n        uint id;\n        string name;\n        string origin;\n        uint farmerPrice;      // Original price from farmer\n        uint distributorPrice; // Price after distributor margin\n        uint retailerPrice;    // Price after retailer margin\n        string quality;\n        State state;\n        address farmer;\n        address distributor;\n        address retailer;\n        address consumer;\n    }\n\n    struct Margins {\n        uint distributorMargin; // Margin added by distributor\n        uint retailerMargin;    // Margin added by retailer\n    }\n\n    mapping(uint => Item) public items;\n    mapping(uint => Margins) public itemMargins;\n\n    mapping(address => bool) public isFarmer;\n    mapping(address => bool) public isDistributor;\n    mapping(address => bool) public isRetailer;\n\n    event Harvested(uint id);\n    event PurchasedByDistributor(uint id);\n    event ShippedByDistributor(uint id);\n    event ReceivedByRetailer(uint id);\n    event PurchasedByRetailer(uint id);\n    event PurchasedByConsumer(uint id);\n\n    constructor() {\n        owner = msg.sender;\n    }\n\n    function addFarmer(address _farmer) public { isFarmer[_farmer] = true; }\n    function addDistributor(address _dist) public { isDistributor[_dist] = true; }\n    function addRetailer(address _retailer) public { isRetailer[_retailer] = true; }\n\n    function harvestItem(string memory _name, string memory _origin, uint _price, string memory _quality) public {\n        require(isFarmer[msg.sender], \"Only farmers can harvest\");\n        itemCounter++;\n        items[itemCounter] = Item(\n            itemCounter, \n            _name, \n            _origin, \n            _price,        // farmerPrice\n            _price,        // distributorPrice (initially same)\n            _price,        // retailerPrice (initially same)\n            _quality, \n            State.Harvested, \n            msg.sender, \n            address(0), \n            address(0), \n            address(0)\n        );\n        itemMargins[itemCounter] = Margins(0, 0);\n        emit Harvested(itemCounter);\n    }\n\n    function purchaseByDistributor(uint _id) public payable {\n        Item storage item = items[_id];\n        require(item.state == State.Harvested, \"Not ready for purchase\");\n        require(isDistributor[msg.sender], \"Only distributors\");\n        require(msg.value >= item.farmerPrice, \"Insufficient payment\");\n        item.distributor = msg.sender;\n        item.state = State.PurchasedByDistributor;\n        payable(item.farmer).transfer(msg.value);\n        emit PurchasedByDistributor(_id);\n    }\n\n    function setDistributorMargin(uint _id, uint _margin) public {\n        Item storage item = items[_id];\n        require(item.state == State.PurchasedByDistributor, \"Item not purchased by distributor\");\n        require(isDistributor[msg.sender], \"Only distributors can set margin\");\n        require(item.distributor == msg.sender, \"Only the purchasing distributor can set margin\");\n        itemMargins[_id].distributorMargin = _margin;\n        item.distributorPrice = item.farmerPrice + _margin;\n        item.retailerPrice = item.distributorPrice; // Update retailer price too\n    }\n\n    function shipItem(uint _id) public {\n        Item storage item = items[_id];\n        require(item.state == State.PurchasedByDistributor, \"Not purchased by distributor\");\n        require(isDistributor[msg.sender], \"Only distributors\");\n        require(item.distributor == msg.sender, \"Only the purchasing distributor can ship\");\n        item.state = State.ShippedByDistributor;\n        emit ShippedByDistributor(_id);\n    }\n\n    function receiveByRetailer(uint _id) public {\n        Item storage item = items[_id];\n        require(item.state == State.ShippedByDistributor, \"Not shipped by distributor\");\n        require(isRetailer[msg.sender], \"Only retailers\");\n        item.retailer = msg.sender;\n        item.state = State.ReceivedByRetailer;\n        emit ReceivedByRetailer(_id);\n    }\n\n    function setRetailerMargin(uint _id, uint _margin) public {\n        Item storage item = items[_id];\n        require(item.state == State.ReceivedByRetailer, \"Item not received by retailer\");\n        require(isRetailer[msg.sender], \"Only retailers can set margin\");\n        require(item.retailer == msg.sender, \"Only the receiving retailer can set margin\");\n        itemMargins[_id].retailerMargin = _margin;\n        item.retailerPrice = item.distributorPrice + _margin;\n    }\n\n    function purchaseByRetailer(uint _id) public payable {\n        Item storage item = items[_id];\n        require(item.state == State.ReceivedByRetailer, \"Not received by retailer\");\n        require(isRetailer[msg.sender], \"Only retailers\");\n        require(item.retailer == msg.sender, \"Only the receiving retailer can purchase\");\n        require(msg.value >= item.distributorPrice, \"Insufficient payment\");\n        item.state = State.ForSaleByRetailer;\n        payable(item.distributor).transfer(msg.value);\n        emit PurchasedByRetailer(_id);\n    }\n\n    function purchaseByConsumer(uint _id) public payable {\n        Item storage item = items[_id];\n        require(item.state == State.ForSaleByRetailer, \"Not for sale by retailer\");\n        require(msg.value >= item.retailerPrice, \"Insufficient payment\");\n        item.consumer = msg.sender;\n        item.state = State.PurchasedByConsumer;\n        payable(item.retailer).transfer(msg.value);\n        emit PurchasedByConsumer(_id);\n    }\n\n    function getPriceBreakdown(uint _id) public view returns (\n        uint farmerPrice,\n        uint distributorMargin,\n        uint distributorPrice,\n        uint retailerMargin,\n        uint retailerPrice,\n        uint totalMargin\n    ) {\n        Item memory item = items[_id];\n        Margins memory margins = itemMargins[_id];\n        farmerPrice = item.farmerPrice;\n        distributorMargin = margins.distributorMargin;\n        distributorPrice = item.distributorPrice;\n        retailerMargin = margins.retailerMargin;\n        retailerPrice = item.retailerPrice;\n        totalMargin = margins.distributorMargin + margins.retailerMargin;\n    }\n\n    function getItem(uint _id) public view returns (Item memory) {\n        return items[_id];\n    }\n\n    function getItemMargins(uint _id) public view returns (Margins memory) {\n        return itemMargins[_id];\n    }\n}",
  "sourcePath": "C:\\Users\\vinit\\AgriChainProject\\contracts\\AgriSupplyChain.sol",
  "compiler": {
    "name": "solc",
    "version": "0.8.0+commit.c7dfd78e.Emscripten.clang"
  },
  "schemaVersion": "3.4.16",
  "updatedAt": "2025-09-27T20:40:38.169Z",
  "networkType": "ethereum",
  "devdoc": {
    "kind": "dev",
    "methods": {},
    "version": 1
  },
  "userdoc": {
    "kind": "user",
    "methods": {},
    "version": 1
  }
}